:100000000C94FE000C9412010C9412010C94120139
:100010000C9412010C9412010C9412010C94120114
:100020000C9412010C9412010C9412010C94120104
:100030000C9412010C9412010C9412010C941201F4
:100040000C9412010C9412010C9412010C941201E4
:100050000C9412010C9412010C9412010C941201D4
:100060000C9412010C9412010C9412010C941201C4
:100070000C9412010C9412010C9412010C941201B4
:100080000C9412010C9412010C9412010C941201A4
:100090000C9412010C9412010C9412010C94120194
:1000A0000C9412010C9412010C9412010C94120184
:1000B0000C9412010C9412010C9412010C94120174
:1000C0000C9412010C9412010C9412010C94120164
:1000D0000C9412010C9412010C9412010C94120154
:1000E0000C9412010C9412010C9412010C94120144
:1000F0000C9412010C9412010C9412010C94120134
:100100000C9412010C9412010C9412010C94120123
:100110000C9412010C9412010C9412010C94120113
:100120000C9412010C9412010C9412010C94120103
:100130000C9412010C9412010C9412010C941201F3
:100140000C9412010C9412010C9412010C941201E3
:100150000C9412010C9412010C9412010C941201D3
:100160000C9412010C9412010C9412010C941201C3
:100170000C9412010C9412010C9412010C941201B3
:100180000C9412010C9412010C9412010C941201A3
:100190000C9412010C9412010C9412010C94120193
:1001A0000C9412010C9412010C9412010C94120183
:1001B0000C9412010C9412010C9412010C94120173
:1001C0000C9412010C9412010C9412010C94120163
:1001D0000C9412010C9412010C9412010C94120153
:1001E0000C9412010C9412010C9412010C94120143
:1001F0000C9412010C9412010C94120111241FBED4
:10020000CFEFCDBFDFE3DEBF00E00CBF20E2A0E018
:10021000B0E201C01D92A230B207E1F70E9487014F
:100220000C94F0010C940000FC01848114829AE289
:100230009A95F1F700C084830895FB014423E1F00F
:1002400024E030E040E050E061E08081806880831D
:10025000838180FFFDCF638384819581480F591F7F
:100260002150310991F7CA0199230CF40396959511
:10027000879595958795089580818068808383818F
:1002800080FFFDCF81E08383848195810895AAEC6E
:10029000B1E092E09C93E82FF0E084911C920895E5
:1002A000CF93DF93EC01C11582E0D80759F480E2C7
:1002B0000E944701C0E0D2E08C8781E20E944701A2
:1002C0008D8708C084E20E9447018C8785E20E94E6
:1002D00047018D87DF91CF91089588E08093410693
:1002E00084E0809342068CE08093A6081092A708D1
:1002F00083E08093A50888E18093A4080895E1EA4B
:10030000F8E0908195FFFDCF8093A0080895E0EA82
:10031000F6E08FEF8083148280E492E00E94500127
:10032000E0E4F2E08181897E8061818382818F783F
:10033000806182838481887F81608483A0E6B2E0CB
:100340008C918C7F81608C9388E011968C93808156
:100350008160808380E492E00E94140141E060E6C5
:1003600072E080E492E00E941D01082F0E946D015E
:10037000C0E6D2E0DD24D394002E000C110B0F2E2A
:10038000F0EAEF2EF6E0FF2EF02D8881806888835A
:100390008B8180FFFDCFDB828C819D81801B910B47
:1003A0008093002090930120809100209091012063
:1003B00001979695879596958795969587958093BD
:1003C0000020909301208091002090910120F7015E
:1003D000848380910020909101200E947F01D5CFDD
:0403E000F894FFCFBF
:00000001FF
